:100000000C942A000C9427030C943E030C94470094
:100010000C9447000C9447000C9447000C94470044
:100020000C9447000C9447000C9447000C94470034
:100030000C9447000C9447000C9447000C94470024
:100040000C9447000C9447000C9447000C94470014
:100050000C94470011241FBECFE5D8E0DEBFCDBF12
:1000600010E0A0E6B0E0EEE5FDE002C005900D92E4
:10007000A837B107D9F720E0A8E7B0E001C01D928A
:10008000AE37B207E1F70E9470030C94AD060C94F2
:100090000000672B09F0DFC0009721F48BB38E7F3F
:1000A0008BBB08958130910521F48BB38D7F8BBB81
:1000B00008958230910521F48BB38B7F8BBB08951B
:1000C0008330910521F48BB3877F8BBB08958430F7
:1000D000910521F48BB38F7E8BBB089585309105FC
:1000E00021F48BB38F7D8BBB08958630910521F46D
:1000F0008BB38F7B8BBB08958730910521F48BB335
:100100008F778BBB08958A30910521F488B38E7F59
:1001100088BB08958B30910521F488B38D7F88BB0F
:1001200008958C30910521F488B38B7F88BB0895A6
:100130008D30910521F488B3877F88BB08958E3078
:10014000910521F488B38F7E88BB08958F30910587
:1001500021F488B38F7D88BB08958031910521F407
:1001600088B38F7B88BB08958131910521F488B3D2
:100170008F7788BB08958431910521F485B38E7FF4
:1001800085BB08958531910521F485B38D7F85BBAD
:1001900008958631910521F485B38B7F85BB089541
:1001A0008731910521F485B3877F85BB0895883118
:1001B000910521F485B38F7E85BB08958931910522
:1001C00021F485B38F7D85BB08958A31910521F493
:1001D00085B38F7B85BB08958B31910521F485B361
:1001E0008F7785BB08958E31910521F482B38E7F80
:1001F00082BB08958F31910521F482B38D7F82BB3C
:1002000008958032910521F482B38B7F82BB0895DB
:100210008132910521F482B3877F82BB08958232B7
:10022000910521F482B38F7E82BB089583329105BC
:1002300021F482B38F7D82BB08958432910521F42D
:1002400082B38F7B82BB0895859709F0E1C082B3AA
:100250008F7782BB0895009721F48BB381608BBBAD
:1002600008958130910521F48BB382608BBB089592
:100270008230910521F48BB384608BBB0895833069
:10028000910521F48BB388608BBB08958430910570
:1002900021F48BB380618BBB08958530910521F4E7
:1002A0008BB380628BBB08958630910521F48BB3AC
:1002B00080648BBB08958730910521F48BB38068EF
:1002C0008BBB08958A30910521F488B3816088BB87
:1002D00008958B30910521F488B3826088BB08951E
:1002E0008C30910521F488B3846088BB08958D30EB
:1002F000910521F488B3886088BB08958E309105FC
:1003000021F488B3806188BB08958F30910521F472
:1003100088B3806288BB08958031910521F488B349
:10032000806488BB08958131910521F488B3806889
:1003300088BB08958431910521F485B3816085BB24
:1003400008958531910521F485B3826085BB0895B8
:100350008631910521F485B3846085BB089587318A
:10036000910521F485B3886085BB08958831910596
:1003700021F485B3806185BB08958931910521F40D
:1003800085B3806285BB08958A31910521F485B3D8
:10039000806485BB08958B31910521F485B3806815
:1003A00085BB08958E31910521F482B3816082BBB3
:1003B00008958F31910521F482B3826082BB089544
:1003C0008032910521F482B3846082BB089581322A
:1003D000910521F482B3886082BB08958232910531
:1003E00021F482B3806182BB08958332910521F4A8
:1003F00082B3806282BB08958432910521F482B376
:10040000806482BB0895859719F482B3806882BBAB
:100410000895CF93C82F80FF07C061E070E082E2AB
:1004200090E00E94490006C060E070E082E290E047
:100430000E944900C1FF07C061E070E083E290E0E4
:100440000E94490006C060E070E083E290E00E94F4
:100450004900C2FF07C061E070E084E290E00E94C2
:10046000490006C060E070E084E290E00E9449002C
:10047000C3FF07C061E070E085E290E00E944900A0
:1004800006C060E070E085E290E00E944900CF91F4
:100490000895CF93C82F60E070E08AE190E00E9459
:1004A00049008C2F0E94090261E070E08BE190E02E
:1004B0000E9449008FE99FE00197F1F700C000001A
:1004C00060E070E08BE190E00E9449008FE99FE0DE
:1004D0000197F1F700C00000CF91089580E00E94DD
:1004E000490281E00E9449020895CF93813061F46E
:1004F00080E8860FC62FCF7082958F700E944902C8
:100500008C2F0E9449020DC0823059F480EC860F76
:10051000C62FCF7082958F700E9449028C2F0E9447
:100520004902CF91089580E00E9409022FEF89EFE0
:1005300090E0215080409040E1F700C0000083E04F
:100540000E9449028FE19EE40197F1F700C000008C
:1005500083E00E9449028FED9BEA0197F1F700C00A
:10056000000083E00E94490282E00E94490282E08A
:100570000E94490288E00E94490280E00E944902EC
:100580008CE00E94490280E00E94490286E00E94BD
:1005900049020895CF93DF93D82FDF70C82FC07F13
:1005A00061E070E08AE190E00E9449008C2F829522
:1005B0008F700E94090261E070E08BE190E00E9480
:1005C00049008FE99FE00197F1F700C0000060E06B
:1005D00070E08BE190E00E9449008FE99FE0019775
:1005E000F1F700C000008D2F0E94090261E070E069
:1005F0008BE190E00E9449008FE99FE00197F1F7BD
:1006000000C0000060E070E08BE190E00E944900D3
:100610008FE99FE00197F1F700C00000DF91CF91D3
:1006200008950F931F93CF93DF938C01C0E0D0E028
:1006300003C00E94CA022196F801EC0FFD1F8081C1
:100640008111F7CFDF91CF911F910F9108951F92E4
:100650000F920FB60F9211248F939F9380917C007D
:1006600090917D00019690937D0080937C009F91F6
:100670008F910F900FBE0F901F9018951F920F92A1
:100680000FB60F9211242F938F939F9380917A002E
:1006900090917B00892BE1F4809178009091790012
:1006A000892BB1F481E090E090937B0080937A00F5
:1006B000909379008093780082E088BB2FEF80E7E9
:1006C00092E0215080409040E1F700C0000018BA4D
:1006D0009F918F912F910F900FBE0F901F901895A3
:1006E000CF93DF93CDB7DEB72A970FB6F894DEBF6E
:1006F0000FBECDBF80EF81BB8FEF84BB17BA85B72C
:100700008A6085BF80EC8BBF78940E9493028091B1
:100710007A0090917B00009759F461E081E00E949B
:10072000750280E690E00E9411030E946E02EFCFF6
:10073000019769F78091780090917900019739F7D6
:1007400080917D008F9380917C008F938DE690E067
:100750009F938F938E010F5F1F4F1F930F930E94E4
:10076000C30361E081E00E94750280E790E00E948F
:100770001103C8010E9411030F900F900F900F906A
:100780000F900F90C4CFAEE0B0E0E9ECF3E00C9432
:1007900084060D891E8986E08C831A8309838FEF76
:1007A0009FE79E838D83AE01475E5F4F6F89788D93
:1007B000CE0101960E94E503EF81F885E00FF11F5D
:1007C00010822E96E4E00C94A006ABE0B0E0EBEED5
:1007D000F3E00C9476066C017B018A01FC01178220
:1007E0001682838181FFCCC1CE0101963C01F601C6
:1007F0009381F70193FD859193FF81917F01882378
:1008000009F4BAC1853239F493FD859193FF819142
:100810007F01853229F4B60190E00E94DC05E7CF24
:10082000912C212C312CFFE1F315D8F08B3279F08B
:1008300038F4803279F08332A1F4232D20611DC079
:100840008D3261F0803369F4232D216016C0832D31
:100850008260382EE32DE4603E2E2AC0F32DF8602E
:100860001DC037FC2DC020ED280F2A3040F08E32FD
:10087000B9F436FC81C1232D2064322E19C036FE16
:1008800006C08AE0989E200D1124922E11C0EAE045
:100890002E9E200D1124222EF32DF0623F2E08C033
:1008A0008C3621F4832D8068382E02C0883641F4BE
:1008B000F70193FD859193FF81917F018111B3CF62
:1008C000982F9F7D9554933028F40C5F1F4F9FE322
:1008D00099830DC0833631F0833771F0833509F089
:1008E00059C021C0F801808189830E5F1F4F882481
:1008F0008394912C530113C02801F2E04F0E511C38
:10090000F801A080B18036FE03C0692D70E002C0FE
:100910006FEF7FEFC5010E94D1054C018201F32DDD
:10092000FF773F2E16C0280122E0420E511CF8012D
:10093000A080B18036FE03C0692D70E002C06FEF69
:100940007FEFC5010E94C6054C01F32DF0683F2ED4
:10095000820133FC1BC0822D90E088169906B0F40A
:10096000B60180E290E00E94DC052A94F4CFF50104
:1009700037FC859137FE81915F01B60190E00E94BE
:10098000DC0521102A9421E0821A91088114910437
:1009900071F7E8C0843611F0893641F5F80137FE69
:1009A00007C060817181828193810C5F1F4F08C0F5
:1009B00060817181072E000C880B990B0E5F1F4F11
:1009C000F32DFF763F2E97FF09C090958095709587
:1009D00061957F4F8F4F9F4FF0683F2E2AE030E0A8
:1009E000A3010E941806882E861845C0853731F469
:1009F000232D2F7EB22E2AE030E025C0932D997F43
:100A0000B92E8F36C1F018F4883579F0B5C080372B
:100A100019F0883721F0B0C0E92FE061BE2EB4FE96
:100A20000DC0FB2DF460BF2E09C034FE0AC0292F73
:100A30002660B22E06C028E030E005C020E130E09C
:100A400002C020E132E0F801B7FE07C06081718189
:100A5000828193810C5F1F4F06C06081718180E0AD
:100A600090E00E5F1F4FA3010E941806882E861883
:100A7000FB2DFF773F2E36FE0DC0232D2E7FA22E9D
:100A8000891458F434FE0BC032FC09C0832D8E7ECD
:100A9000A82E05C0B82CA32C03C0B82C01C0B92CBB
:100AA000A4FE0FC0FE01E80DF11D8081803321F40A
:100AB0009A2D997EA92E09C0A2FE06C0B394B394C4
:100AC00004C08A2D867809F0B394A3FC11C0A0FE5F
:100AD00006C0B21488F4280C922C9B180EC0B214D5
:100AE00060F4B60180E290E00E94DC05B394F7CF99
:100AF000B21418F42B1802C0982C212CA4FE10C09C
:100B0000B60180E390E00E94DC05A2FE17C0A1FCC4
:100B100003C088E790E002C088E590E0B6010CC011
:100B20008A2D867859F0A1FE02C08BE201C080E2D6
:100B3000A7FC8DE2B60190E00E94DC05891438F430
:100B4000B60180E390E00E94DC059A94F7CF8A9486
:100B5000F301E80DF11D8081B60190E00E94DC05F3
:100B60008110F5CF222009F442CEB60180E290E058
:100B70000E94DC052A94F6CFF6018681978102C097
:100B80008FEF9FEF2B96E2E10C949206FC0105900B
:100B9000615070400110D8F7809590958E0F9F1F7F
:100BA0000895FC016150704001900110D8F78095C4
:100BB00090958E0F9F1F08950F931F93CF93DF93F0
:100BC000FB01238121FD03C08FEF9FEF2CC022FF8B
:100BD00016C046815781248135814217530744F45A
:100BE000A081B1819D012F5F3F4F318320838C9382
:100BF000268137812F5F3F4F3783268314C08B01B7
:100C0000EC01FB010084F185E02D0995892BE1F6CB
:100C1000D80116968D919C911797019617969C93E3
:100C20008E931697CE01DF91CF911F910F9108956A
:100C3000FA01AA27283051F1203181F1E8946F930D
:100C40006E7F6E5F7F4F8F4F9F4FAF4FB1E03ED0B3
:100C5000B4E03CD0670F781F891F9A1FA11D680F51
:100C6000791F8A1F911DA11D6A0F711D811D911D84
:100C7000A11D20D009F468943F912AE0269F1124F9
:100C80003019305D3193DEF6CF010895462F47705D
:100C9000405D4193B3E00FD0C9F7F6CF462F4F70B8
:100CA000405D4A3318F0495D31FD4052419302D016
:100CB000A9F7EACFB4E0A6959795879577956795BC
:100CC000BA95C9F700976105710508959B01AC01BC
:100CD0000A2E06945795479537952795BA95C9F7E3
:100CE000620F731F841F951FA01D08952F923F92BE
:100CF0004F925F926F927F928F929F92AF92BF922C
:100D0000CF92DF92EF92FF920F931F93CF93DF93D7
:100D1000CDB7DEB7CA1BDB0B0FB6F894DEBF0FBE34
:100D2000CDBF09942A88398848885F846E847D8481
:100D30008C849B84AA84B984C884DF80EE80FD8083
:100D40000C811B81AA81B981CE0FD11D0FB6F894F9
:0E0D5000DEBF0FBECDBFED010895F894FFCFBA
:100D5E005072657373205354415254210025640020
:080D6E0053434F52453A2000A7
:00000001FF
