S00F000061746D656761312E7372656375
S11300000C942A000C949F0B0C94380B0C94E90A62
S11300100C9447000C9447000C9447000C94470040
S11300200C9447000C9447000C9447000C94470030
S11300300C9447000C9447000C9447000C94470020
S11300400C9447000C9447000C9447000C94470010
S11300500C94470011241FBECFE5D8E0DEBFCDBF0E
S113006010E0A0E6B0E0EEE7FCE102C005900D92DE
S1130070AC38B107D9F722E0ACE8B0E001C01D927A
S1130080AA3FB207E1F70E945A0D0C943D0E0C945E
S11300900000FC010FB6F8946091F6027091F7022B
S11300A08091F8029091F9020FBE309721F060839D
S11300B07183828393830895BC0121E030E080E062
S11300C090E01EC0FB01EE0FFF1FEE0FFF1FEE0FAF
S11300D0FF1FE60FF71FE20FF31FEE0FFF1FEE5691
S11300E0FF4F40815181E8E0F0E0E21BF30B02C0D6
S11300F0440F551FEA95E2F7842B952B2F5F3F4F52
S113010029303105FCF20895FC01EE0FFF1FEE0FBC
S1130110FF1FEE0FFF1FE80FF91FE60FF71FEE0F8B
S1130120FF1FEE56FF4F81E090E091838083089596
S11301308F929F92AF92BF92CF92DF92EF92FF92F3
S11301400F931F93CF93DF938C017B0180918C00DD
S113015090918D0083709927892B09F079C0013122
S113016011050CF017C2623071050CF416C2683028
S113017071050CF015C2F801EE0FFF1FEE0FFF1F03
S1130180EE0FFF1FE00FF11FE60FF71FEE0FFF1F2B
S1130190EE56FF4F80819181009709F004C2EB0174
S11301A02197F801EE0FFF1FEE0FFF1FEE0FFF1F49
S11301B0E00FF11FEC0FFD1FEE0FFF1FEE56FF4F78
S11301C0208131812115310509F01EC26B018FEFA9
S11301D0C81AD80AF801EE0FFF1FEE0FFF1FEE0F2B
S11301E0FF1FE00FF11FEC0DFD1DEE0FFF1FEE567C
S11301F0FF4F80819181009709F0D8C1580121E017
S1130200A21AB108F501EE0FFF1FEE0FFF1FEE0F4C
S1130210FF1FEA0DFB1DE60FF71FEE0FFF1FEE5643
S1130220FF4F20813181232B09F0EEC1C8010E94C8
S11302308400BE01C8010E948400B601C8010E9466
S11302408400B701C5010E94840081E090E0DCC114
S113025080918C0090918D0083709078992324F480
S113026001978C6F9F6F0196EC01019709F07CC098
S1130270003111050CF09CC11E141F040CF09BC12D
S113028088E0E816F1040CF099C1F801EE0FFF1FA5
S1130290EE0FFF1FEE0FFF1FE00FF11FEE0DFF1D0E
S11302A0EE0FFF1FEE56FF4F80819181009709F0FA
S11302B088C1680121E0C21AD108F601EE0FFF1FC0
S11302C0EE0FFF1FEE0FFF1FEC0DFD1DEE0DFF1DCA
S11302D0EE0FFF1FEE56FF4F2081318121153105AE
S11302E009F092C157018FEFA81AB80AF801EE0F6E
S11302F0FF1FEE0FFF1FEE0FFF1FE00FF11FEA0DB0
S1130300FB1DEE0FFF1FEE56FF4F8081918100977A
S113031009F05AC148012FEF821A920AF401EE0F34
S1130320FF1FEE0FFF1FEE0FFF1FE80DF91DEE0D6F
S1130330FF1DEE0FFF1FEE56FF4F20813181232B4F
S113034009F062C1B701C8010E948400B701C60167
S11303500E948400B501C8010E948400B701C40151
S11303600E948400CE0150C180918C0090918D0038
S113037083709078992324F401978C6F9F6F019672
S1130380029709F07CC0003111050CF01FC182E016
S1130390E816F1040CF41DC128E0E216F1040CF097
S11303A01BC1F801EE0FFF1FEE0FFF1FEE0FFF1F23
S11303B0E00FF11FEE0DFF1DEE0FFF1FEE56FF4F76
S11303C080819181009709F00AC1E7012197F80122
S11303D0EE0FFF1FEE0FFF1FEE0FFF1FE00FF11FC9
S11303E0EC0FFD1FEE0FFF1FEE56FF4F20813181F2
S11303F02115310509F008C167018FEFC81AD80A21
S1130400F801EE0FFF1FEE0FFF1FEE0FFF1FE00FAF
S1130410F11FEC0DFD1DEE0FFF1FEE56FF4F808107
S11304209181009709F0DEC058012FEFA21AB20A99
S1130430F501EE0FFF1FEE0FFF1FEE0FFF1FEA0D7A
S1130440FB1DEE0DFF1DEE0FFF1FEE56FF4F20812B
S11304503181232B09F0D8C0B701C8010E94840060
S1130460BE01C8010E948400B601C8010E94840034
S1130470B701C5010E94840081E090E0C5C080916D
S11304808C0090918D0083709078992324F40197C7
S11304908C6F9F6F0196039709F0A6C00031110578
S11304A00CF0A5C082E0E816F1040CF4A3C029E026
S11304B0E216F1040CF0A1C0F801EE0FFF1FEE0FDD
S11304C0FF1FEE0FFF1FE00FF11FEE0DFF1DEE0FDC
S11304D0FF1FEE56FF4F80819181009709F090C075
S11304E0E8012197FE01EE0FFF1FEE0FFF1FEE0F35
S11304F0FF1FEC0FFD1FEE0DFF1DEE0FFF1FEE564D
S1130500FF4F208131812115310509F07DC067013C
S113051081E0C81AD108F801EE0FFF1FEE0FFF1F8C
S1130520EE0FFF1FE00FF11FEC0DFD1DEE0FFF1F7F
S1130530EE56FF4F80819181009709F064C0580105
S11305402FEFA21AB20AF501EE0FFF1FEE0FFF1FE5
S1130550EE0FFF1FEA0DFB1DEE0DFF1DEE0FFF1F3B
S1130560EE56FF4F20813181232B09F04DC0B70196
S1130570C8010E948400B701CE010E948400B60124
S1130580C8010E948400B701C5010E94840081E073
S113059090E03AC080E090E037C080E090E034C062
S11305A080E090E031C080E090E02EC0C9012CC012
S11305B080E090E029C080E090E026C080E090E0F8
S11305C023C080E090E020C0C9011EC080E090E01C
S11305D01BC080E090E018C080E090E015C080E08F
S11305E090E012C0C90110C080E090E00DC080E02E
S11305F090E00AC080E090E007C080E090E004C092
S113060080E090E001C0C901DF91CF911F910F916B
S1130610FF90EF90DF90CF90BF90AF909F908F901E
S11306200895AF92BF92CF92DF92EF92FF920F9311
S11306301F93CF93DF938C017B0180918C00909169
S11306408D0080FD5DC0013111050CF0C8C0623021
S113065071050CF4C7C0683071050CF0C6C0F80110
S1130660EE0FFF1FEE0FFF1FEE0FFF1FE00FF11F36
S1130670E60FF71FEE0FFF1FEE56FF4F208131816B
S11306802115310509F0B4C0EB012197F801EE0FF3
S1130690FF1FEE0FFF1FEE0FFF1FE00FF11FEC0F08
S11306A0FD1FEE0FFF1FEE56FF4F808191810097D3
S11306B009F0A1C06B012FEFC21AD20AF801EE0FA4
S11306C0FF1FEE0FFF1FEE0FFF1FE00FF11FEC0DDA
S11306D0FD1DEE0FFF1FEE56FF4F20813181232BAE
S11306E009F09BC0C8010E948400BE01C8010E9499
S11306F08400B601C8010E94840081E090E08DC0AE
S113070080918C0090918D0081709078992324F4CD
S113071001978E6F9F6F0196EC01019709F06DC0F0
S1130720003111050CF06CC01E141F040CF06BC0DA
S113073089E0E816F1040CF069C0F801EE0FFF1F20
S1130740EE0FFF1FEE0FFF1FE00FF11FEE0DFF1D59
S1130750EE0FFF1FEE56FF4F80819181009709F045
S113076058C0680121E0C21AD108F601EE0FFF1F3C
S1130770EE0FFF1FEE0FFF1FEC0DFD1DEE0DFF1D15
S1130780EE0FFF1FEE56FF4F2081318121153105F9
S113079009F043C058018FEFA81AB80AF501EE0F0B
S11307A0FF1FEE0FFF1FEE0FFF1FEA0DFB1DEE0DE7
S11307B0FF1DEE0FFF1FEE56FF4F80819181892BA5
S11307C059F5B701C8010E948400B701C6010E940F
S11307D08400B701C5010E948400CE011EC080E0E0
S11307E090E01BC080E090E018C080E090E015C06D
S11307F080E090E012C0C90110C080E090E00DC01C
S113080080E090E00AC080E090E007C080E090E0E3
S113081004C080E090E001C0C901DF91CF911F9135
S11308200F91FF90EF90DF90CF90BF90AF9008951D
S1130830CF92DF92EF92FF920F931F93CF93DF93A8
S1130840813191050CF074C0161617060CF073C0B4
S1130850683071050CF072C0FC01EE0FFF1FEE0F43
S1130860FF1FEE0FFF1FE80FF91FE60FF71FEE0F34
S1130870FF1FEE56FF4F208131812115310509F00C
S113088060C06B014FEFC41AD40AFC01EE0FFF1FC6
S1130890EE0FFF1FEE0FFF1FE80FF91FEC0DFD1DFC
S11308A0EE0FFF1FEE56FF4F408151814115510558
S11308B009F04BC07C0121E0E21AF108F701EE0FC8
S11308C0FF1FEE0FFF1FEE0FFF1FEE0DFF1DE60FC4
S11308D0F71FEE0FFF1FEE56FF4F208131812115C8
S11308E0310591F5F701EE0FFF1FEE0FFF1FEE0F1D
S11308F0FF1FEE0DFF1DEC0DFD1DEE0FFF1FEE564D
S1130900FF4F40815181452B01F58B01EC010E9481
S11309108400B601CE010E948400B801C7010E9480
S11309208400B601C7010E94840021E030E00DC0BC
S113093020E030E00AC020E030E007C020E030E0F2
S113094004C020E030E001C09A01C901DF91CF91D9
S11309501F910F91FF90EF90DF90CF9008958F92A9
S11309609F92AF92BF92CF92DF92EF92FF920F933A
S11309701F93CF93DF938C017B0180918C00909126
S11309808D0083709927892B09F079C001311105F5
S11309900CF017C2161617060CF016C26830710553
S11309A00CF015C2F801EE0FFF1FEE0FFF1FEE0F44
S11309B0FF1FE00FF11FE60FF71FEE0FFF1FEE56AC
S11309C0FF4F80819181009709F004C2EB012196C9
S11309D0F801EE0FFF1FEE0FFF1FEE0FFF1FE00FDA
S11309E0F11FEC0FFD1FEE0FFF1FEE56FF4F20818E
S11309F031812115310509F01EC2680181E0C81A50
S1130A00D108F601EE0FFF1FEE0FFF1FEE0FFF1FC1
S1130A10EC0DFD1DE60FF71FEE0FFF1FEE56FF4F07
S1130A2080819181009709F0D8C1580122E0A21A6F
S1130A30B108F501EE0FFF1FEE0FFF1FEE0FFF1FB2
S1130A40EA0DFB1DE60FF71FEE0FFF1FEE56FF4FDB
S1130A5020813181232B09F0EEC1C8010E9484005A
S1130A60BE01C8010E948400B701C6010E9484002F
S1130A70B701C5010E94840081E090E0DCC180914F
S1130A808C0090918D0083709078992324F40197C1
S1130A908C6F9F6F0196EC01019709F07CC00031C7
S1130AA011050CF09CC11E141F040CF09BC187E0BF
S1130AB0E816F1040CF099C1F801EE0FFF1FEE0FD8
S1130AC0FF1FEE0FFF1FE00FF11FEE0DFF1DEE0FD6
S1130AD0FF1FEE56FF4F80819181009709F088C176
S1130AE067012FEFC21AD20AF801EE0FFF1FEE0FB3
S1130AF0FF1FEE0FFF1FE00FF11FEC0DFD1DEE0FAA
S1130B00FF1FEE56FF4F208131812115310509F079
S1130B1092C1570182E0A80EB11CF801EE0FFF1F2D
S1130B20EE0FFF1FEE0FFF1FE00FF11FEA0DFB1D7D
S1130B30EE0FFF1FEE56FF4F80819181009709F061
S1130B405AC148012FEF821A920AF401EE0FFF1FD7
S1130B50EE0FFF1FEE0FFF1FE80DF91DEE0DFF1D39
S1130B60EE0FFF1FEE56FF4F20813181232B09F03A
S1130B7062C1B701C8010E948400B601C8010E9485
S1130B808400B501C8010E948400B701C4010E9419
S1130B908400CE0150C180918C0090918D008370AF
S1130BA09078992324F401978C6F9F6F0196029794
S1130BB009F07CC00F3011050CF01FC182E0E8166B
S1130BC0F1040CF41DC129E0E216F1040CF01BC180
S1130BD0F801EE0FFF1FEE0FFF1FEE0FFF1FE00FD8
S1130BE0F11FEE0DFF1DEE0FFF1FEE56FF4F80812C
S1130BF09181009709F00AC1E7012197F801EE0FEE
S1130C00FF1FEE0FFF1FEE0FFF1FE00FF11FEC0F92
S1130C10FD1FEE0FFF1FEE56FF4F2081318121157E
S1130C20310509F008C168018FEFC81AD80AF60126
S1130C30EE0FFF1FEE0FFF1FEE0FFF1FEC0DFD1D4C
S1130C40EE0DFF1DEE0FFF1FEE56FF4F80819181C9
S1130C50009709F0DEC0580122E0A20EB11CF50194
S1130C60EE0FFF1FEE0FFF1FEE0FFF1FEA0DFB1D20
S1130C70EE0DFF1DEE0FFF1FEE56FF4F2081318159
S1130C80232B09F0D8C0B701C8010E948400BE011B
S1130C90C8010E948400B701C6010E948400B70104
S1130CA0C5010E94840081E090E0C5C080918C0061
S1130CB090918D0083709078992324F401978C6F20
S1130CC09F6F0196039709F0A6C0013111050CF03E
S1130CD0A5C083E0E816F1040CF4A3C029E0E216F1
S1130CE0F1040CF0A1C0F801EE0FFF1FEE0FFF1F7F
S1130CF0EE0FFF1FE00FF11FEE0DFF1DEE0FFF1FA4
S1130D00EE56FF4F80819181009709F090C0E70172
S1130D102197F801EE0FFF1FEE0FFF1FEE0FFF1FCD
S1130D20E00FF11FEC0FFD1FEE0FFF1FEE56FF4FFC
S1130D30208131812115310509F07DC0670182E0F0
S1130D40C81AD108F801EE0FFF1FEE0FFF1FEE0FB8
S1130D50FF1FE00FF11FEC0DFD1DEE0FFF1FEE5600
S1130D60FF4F80819181009709F064C0580121E010
S1130D70A21AB108F501EE0FFF1FEE0FFF1FEE0FD1
S1130D80FF1FEA0DFB1DEE0DFF1DEE0FFF1FEE56BC
S1130D90FF4F20813181232B09F04DC0B701C801D9
S1130DA00E948400BE01C8010E948400B601C801EB
S1130DB00E948400B701C5010E94840081E090E094
S1130DC03AC080E090E037C080E090E034C080E03A
S1130DD090E031C080E090E02EC0C9012CC080E0DA
S1130DE090E029C080E090E026C080E090E023C03D
S1130DF080E090E020C0C9011EC080E090E01BC0EC
S1130E0080E090E018C080E090E015C080E090E0C1
S1130E1012C0C90110C080E090E00DC080E090E0F5
S1130E200AC080E090E007C080E090E004C080E069
S1130E3090E001C0C901DF91CF911F910F91FF9004
S1130E40EF90DF90CF90BF90AF909F908F900895D8
S1130E504130510519F40E9498000895423051051B
S1130E6019F40E94110308954330510519F40E94A6
S1130E70180408954430510519F40E94AF040895EC
S1130E8008954130510509F044C120918C003091FE
S1130E908D0023703327232BE9F5FC01EE0FFF1F90
S1130EA0EE0FFF1FEE0FFF1FE80FF91FDF01A60F64
S1130EB0B71FAA0FBB1FAE56BF4F11961C921E92AE
S1130EC0DB011197AE0FBF1FAA0FBB1FAE56BF4F5A
S1130ED011961C921E929B012F5F3F4FE20FF31F4E
S1130EE0EE0FFF1FEE56FF4F118210820197FC0197
S1130EF0EE0FFF1FEE0FFF1FEE0FFF1F8E0F9F1F42
S1130F00FC01E60FF71FEE0FFF1FEE56FF4F118295
S1130F101082089520918C0030918D0023703078D8
S1130F20332334F4215031092C6F3F6F2F5F3F4F2F
S1130F302130310509F047C0FC01EE0FFF1FEE0F11
S1130F40FF1FEE0FFF1FAF01480F591FDA01A60F55
S1130F50B71FAA0FBB1FAE56BF4F11961C921E920D
S1130F609C0121503109F901EE0FFF1FEE0FFF1F05
S1130F70EE0FFF1FE20FF31FE60FF71FEE0FFF1F29
S1130F80EE56FF4F118210829B012F5F3F4FFA01F3
S1130F90E20FF31FEE0FFF1FEE56FF4F1182108278
S1130FA00196FC01EE0FFF1FEE0FFF1FEE0FFF1F58
S1130FB0E80FF91FE60FF71FEE0FFF1FEE56FF4F66
S1130FC011821082089520918C0030918D0023703D
S1130FD03078332334F4215031092C6F3F6F2F5F65
S1130FE03F4F22303105E1F5FC01EE0FFF1FEE0FFC
S1130FF0FF1FEE0FFF1FE80FF91FDF01A60FB71F3A
S1131000AA0FBB1FAE56BF4F11961C921E92DB0156
S11310101197AE0FBF1FAA0FBB1FAE56BF4F11963D
S11310201C921E929B012F5F3F4FE20FF31FEE0FA6
S1131030FF1FEE56FF4F118210820196FC01EE0F46
S1131040FF1FEE0FFF1FEE0FFF1FE80FF91FE60F44
S1131050F71FEE0FFF1FEE56FF4F11821082089507
S113106020918C0030918D0023703078332334F438
S1131070215031092C6F3F6F2F5F3F4F23303105D3
S113108009F044C2FC01EE0FFF1FEE0FFF1FEE0F2D
S1131090FF1FAF01480F591FDA01A60FB71FAA0F90
S11310A0BB1FAE56BF4F11961C921E929C0121503D
S11310B03109F901EE0FFF1FEE0FFF1FEE0FFF1FA7
S11310C0E20FF31FE60FF71FEE0FFF1FEE56FF4F61
S11310D0118210829B0121503109FA01E20FF31FA2
S11310E0EE0FFF1FEE56FF4F118210820196FC0196
S11310F0EE0FFF1FEE0FFF1FEE0FFF1FE80FF91F8C
S1131100E60FF71FEE0FFF1FEE56FF4F11821082FE
S113111008954230510509F078C020918C00309137
S11311208D0020FD28C0FC01EE0FFF1FEE0FFF1FF6
S1131130EE0FFF1F8E0F9F1FFC01E60FF71FEE0F30
S1131140FF1FEE56FF4F11821082DB011197A80F8B
S1131150B91FAA0FBB1FAE56BF4F11961C921E9209
S1131160FB013196E80FF91FEE0FFF1FEE56FF4FFC
S113117011821082089520918C0030918D0021708D
S11311803078332334F4215031092E6F3F6F2F5FB1
S11311903F4F2130310509F0B9C1FC01EE0FFF1FAB
S11311A0EE0FFF1FEE0FFF1FE80FF91FE60FF71FEB
S11311B0EE0FFF1FEE56FF4F118210829C0121504B
S11311C03109F901EE0FFF1FEE0FFF1FEE0FFF1F96
S11311D0E20FF31FE60FF71FEE0FFF1FEE56FF4F50
S11311E0118210820196FC01EE0FFF1FEE0FFF1F0C
S11311F0EE0FFF1FE80FF91FE60FF71FEE0FFF1F9B
S1131200EE56FF4F11821082089543305105D9F5EF
S11312109C01220F331F220F331F220F331F280F6D
S1131220391FF901E60FF71FEE0FFF1FEE56FF4FB0
S113123011821082AB014F5F5F4FF901E40FF51F7C
S1131240EE0FFF1FEE56FF4F118210820197FC0133
S1131250EE0FFF1FEE0FFF1FEE0FFF1F8E0F9F1FDE
S1131260FC01E60FF71FEE0FFF1FEE56FF4F118232
S11312701082FC01E40FF51FEE0FFF1FEE56FF4F27
S11312801182108208954430510509F03FC1209124
S11312908C0030918D0023703327232B09F045C037
S11312A0FC01EE0FFF1FEE0FFF1FEE0FFF1FE80FF5
S11312B0F91FDF01A60FB71FAA0FBB1FAE56BF4F02
S11312C011961C921E929B012F5F3F4FE20FF31F5A
S11312D0EE0FFF1FEE56FF4F118210829C0121502A
S11312E03109F901EE0FFF1FEE0FFF1FEE0FFF1F75
S11312F0E20FF31FE60FF71FEE0FFF1FEE56FF4F2F
S1131300118210820297FC01EE0FFF1FEE0FFF1FE8
S1131310EE0FFF1FE80FF91FE60FF71FEE0FFF1F79
S1131320EE56FF4F11821082089520918C00309167
S11313308D0023703078332334F4215031092C6F1D
S11313403F6F2F5F3F4F21303105E1F5FC01EE0F78
S1131350FF1FEE0FFF1FEE0FFF1FE80FF91FDF0146
S1131360A60FB71FAA0FBB1FAE56BF4F11961C92F4
S11313701E92DB011196AE0FBF1FAA0FBB1FAE5604
S1131380BF4F11961C921E929B012E5F3F4FE20F9E
S1131390F31FEE0FFF1FEE56FF4F118210820196CE
S11313A0FC01EE0FFF1FEE0FFF1FEE0FFF1FE80FF4
S11313B0F91FE60FF71FEE0FFF1FEE56FF4F1182C6
S11313C01082089520918C0030918D002370307824
S11313D0332334F4215031092C6F3F6F2F5F3F4F7B
S11313E02230310509F045C0FC01EE0FFF1FEE0F5E
S11313F0FF1FEE0FFF1FE80FF91FDF01A60FB71F36
S1131400AA0FBB1FAE56BF4F11961C921E929B0192
S113141021503109E20FF31FEE0FFF1FEE56FF4F6D
S1131420118210829C012F5F3F4FF901EE0FFF1FC5
S1131430EE0FFF1FEE0FFF1FE20FF31FE60FF71F64
S1131440EE0FFF1FEE56FF4F118210820296FC0131
S1131450EE0FFF1FEE0FFF1FEE0FFF1FE80FF91F28
S1131460E60FF71FEE0FFF1FEE56FF4F118210829B
S1131470089520918C0030918D00237030783323AF
S113148034F4215031092C6F3F6F2F5F3F4F2330CD
S11314903105E1F5FC01EE0FFF1FEE0FFF1FEE0F0C
S11314A0FF1FE80FF91FDF01A60FB71FAA0FBB1F0D
S11314B0AE56BF4F11961C921E92DB011197AE0FD0
S11314C0BF1FAA0FBB1FAE56BF4F11961C921E9290
S11314D09B0122503109E20FF31FEE0FFF1FEE565E
S11314E0FF4F118210820197FC01EE0FFF1FEE0FD8
S11314F0FF1FEE0FFF1F8E0F9F1FFC01E60FF71F4C
S1131500EE0FFF1FEE56FF4F118210820895EF92E7
S1131510FF920F931F93CF93DF93CDB7DEB7A097BE
S11315200FB6F894DEBF0FBECDBFF89400E010E014
S113153013C078012FEFE21AF20AC7010E945C007F
S1131540F801EE0FFF1F21E030E02C0F3D1FE20FEA
S1131550F31F9183808387010031110554F300E068
S113156010E026C0AD0141505109FA01EE0FFF1FF2
S113157081E090E08C0F9D1FE80FF91F608181E0EE
S113158090E00AC0FA01EE0FFF1FE459FF4F2081DB
S113159031812BBB65BB0196853191059CF3119676
S11315A002C0A1E0B0E0A131B105E4F20F5F1F4F2A
S11315B0003A1105B4F37894A0960FB6F894DEBF00
S11315C00FBECDBFDF91CF911F910F91FF90EF9090
S11315D008951F920F920FB60F9211242F933F93E9
S11315E04F935F936F937F938F939F93AF93BF9327
S11315F0EF93FF93409190005091910060916800A7
S11316007091690080916A0090916B000E9441077B
S113161080918C0090918D0001968370907899232D
S113162024F401978C6F9F6F019690938D008093A3
S11316308C004091900050919100609168007091ED
S1131640690080916A0090916B000E942807FF91C5
S1131650EF91BF91AF919F918F917F916F915F9126
S11316604F913F912F910F900FBE0F901F9018959F
S11316701F920F920FB60F9211242F933F934F9303
S11316805F936F937F938F939F93AF93BF93EF93E6
S1131690FF93409190005091910060916800709187
S11316A0690080916A0090916B000E9441078091CB
S11316B06800909169009093650080936400809124
S11316C06800909169000197909369008093680085
S11316D04091900050919100609168007091690070
S11316E080916A0090916B000E942807892BB1F4C5
S11316F080916400909165009093690080936800E4
S1131700409190005091910060916800709169003F
S113171080916A0090916B000E942807FF91EF91DD
S1131720BF91AF919F918F917F916F915F914F91F5
S11317303F912F910F900FBE0F901F9018951F92FD
S11317400F920FB60F9211242F933F934F935F93F1
S11317506F937F938F939F93AF93BF93EF93FF9375
S113176040919000509191006091680070916900DF
S113177080916A0090916B000E94410780916800FB
S11317809091690090936500809364008091680053
S1131790909169000196909369008093680040914C
S11317A0900050919100609168007091690080915F
S11317B06A0090916B000E942807892BB1F48091F4
S11317C06400909165009093690080936800409153
S11317D0900050919100609168007091690080912F
S11317E06A0090916B000E942807FF91EF91BF91CE
S11317F0AF919F918F917F916F915F914F913F91A5
S11318002F910F900FBE0F901F9018950F931F9359
S1131810CF93DF9300E010E0C0E1D0E058C0CE01E8
S11318200E945C008F3F910509F050C0AE01415009
S113183051092EC0CA010196FA01EE0FFF1FEE0FE7
S1131840FF1FEE0FFF1FE40FF51FE20FF31FEE0F54
S1131850FF1FEE56FF4F60817181FC01EE0FFF1FE9
S1131860EE0FFF1FEE0FFF1FE80FF91FE20FF31F2C
S1131870EE0FFF1FEE56FF4F718360832F5F3F4FC4
S113188002C021E030E029303105A4F24150510971
S113189014161506B4F381E090E009C0FC013996F2
S11318A0EE0FFF1FEE56FF4F118210820196893012
S11318B09105A4F3219681E082BB83ED90E3019727
S11318C0F1F700C0000012BA01E010E021971C16E5
S11318D01D060CF4A4CFC801DF91CF911F910F9185
S11318E0089580919000909191000197B9F48091AE
S11318F0AC009091AD008130910509F449C080910C
S1131900AE009091AF008130910509F441C08091FF
S1131910AA009091AB0081309105D1F180919000A3
S1131920909191000297A9F48091AC009091AD0040
S11319308130910569F18091AE009091AF008130C2
S1131940910531F18091AA009091AB00813091050D
S1131950F9F08091900090919100039731F080917B
S1131960900090919100049789F48091AC0090913B
S1131970AD008130910561F08091AE009091AF008F
S11319808130910529F080E090E0089580E090E0B6
S113199008950E94710C019751F482E391E0E2E909
S11319A0F0E0DF019C011D9221503040E1F780916D
S11319B06A0090916B00019799F40E94CA0D83709C
S11319C09078992324F401978C6F9F6F0196019668
S11319D0909391008093900010928D0010928C004F
S11319E0409190005091910060916800709169005D
S11319F080916A0090916B000E942807892BA1F4C2
S1131A00409190005091910060916800709169003C
S1131A1080916600909167000E94280781E090E021
S1131A2090938F0080938E0080916A0090916B0058
S1131A3090936700809366000E94870A80918E00CD
S1131A4090918F00892BC1F44091900050919100A6
S1131A50609168007091690080916A0090916B00B8
S1131A600E94410780916A0090916B0001969093C7
S1131A706B0080936A0010C081E090E090936B004B
S1131A8080936A0084E090E09093690080936800FA
S1131A9010928F0010928E000E94060C019711F490
S1131AA00E94870A089580EE8BBF8AE085BF14BE2A
S1131AB07894089582E391E0E2E9F0E0DF019C018B
S1131AC01D9221503040E1F7E4ECF1E0DF019C018C
S1131AD01D9221503040E1F717BA8FEF8ABB81E0A5
S1131AE081BB0E94530D789480E090E00E944900ED
S1131AF0CB010E94CF0D0E94C90CFDCF8F929F9203
S1131B00AF92BF92CF92DF92EF92FF92CF93DF9387
S1131B10EC01688179818A819B8161157105810558
S1131B20910521F464E279ED8BE597E02DE133EF43
S1131B3041E050E00E94DA0D49015A019B01AC01D9
S1131B40A7EAB1E40E94F90D6B017C01ACEEB4EF9D
S1131B50A50194010E94070EDC01CB018C0D9D1D93
S1131B60AE1DBF1DB7FF03C00197A109B04888830C
S1131B709983AA83BB839F77DF91CF91FF90EF90E6
S1131B80DF90CF90BF90AF909F908F9008950E9468
S1131B907E0D089580E690E00E947E0D0895A0E0F9
S1131BA0B0E08093600090936100A0936200B093D2
S1131BB063000895052E97FB1EF400940E94F10D16
S1131BC057FD07D00E940C0E07FC03D04EF40C9472
S1131BD0F10D50954095309521953F4F4F4F5F4FF4
S1131BE0089590958095709561957F4F8F4F9F4F85
S1131BF008950E942E0EA59F900DB49F900DA49F52
S1131C00800D911D11240895B7FF0C94F90D0E94C5
S1131C10F90D821B930B0895A1E21A2EAA1BBB1B7C
S1131C20FD010DC0AA1FBB1FEE1FFF1FA217B307A4
S1131C30E407F50720F0A21BB30BE40BF50B661FBA
S1131C40771F881F991F1A9469F76095709580957E
S1131C5090959B01AC01BD01CF010895A29FB001F5
S1131C60B39FC001A39F700D811D1124911DB29FCC
S1111C70700D811D1124911D0895F894FFCF6D
S1131C7E0100000004000100040001000800090036
S1131C8E0A000B000C000D000E000F0080009000E7
S10F1C9EA000B000C000D000E000F00086
S9030000FC
